:1000000068290020FD2E0000892F0000892F0000A4
:1000100000000000000000000000000000000000E0
:10002000000000000000000000000000892F000018
:100030000000000000000000892F0000892F000050
:10004000892F0000892F0000892F0000892F0000D0
:10005000F9480000892F0000892F0000892F000037
:10006000892F0000892F0000892F0000892F0000B0
:10007000892F0000892F0000892F0000892F0000A0
:10008000892F0000892F0000892F0000892F000090
:10009000892F0000892F0000892F0000892F000080
:1000A000892F000010B5064C2378002B07D1054B93
:1000B000002B02D0044800E000BF0123237010BDD4
:1000C000900000200000000010920000084B10B5C6
:1000D000002B03D00749084800E000BF0748036829
:1000E000002B00D110BD064B002BFBD09847F9E741
:1000F0000000000094000020109200001092000008
:100100000000000080B500AF03F008FCC046BD460B
:1001100080BDB0B58AB002AFF8600C0010001900C5
:100120000A23FB18221C1A800823FB18021C1A80C1
:10013000BB1D0A1C1A800A23FA18BB1D12881B88D3
:10014000D3189DB20823FB183022B9181A880B88DF
:10015000D3189BB20822BA1814880A22BA18118838
:10016000F86800932B00220001F0BDFD031E00D1B2
:100170003FE11E23FB180A22BA1812881A801E2398
:10018000FB181E22B9183422BA18098812888A1856
:100190001A801C23FB180822BA1812881A801C2304
:1001A000FB181C22B9183422BA18098812888A1838
:1001B0001A801A23FB180A22BA1812881A801A23E6
:1001C000FB181A22B918BA1D098812888A181A80D1
:1001D0001A23FB181A22B9183422BA18098812886F
:1001E0008A1A1A801A23FB181A22BA181288013A9E
:1001F0001A801823FB180822BA1812881A801823AC
:10020000FB181822BA1830217818118802888A1829
:100210001A801823FB181822B9183422BA18098832
:1002200012888A1A1A801823FB181822BA18128802
:10023000013A1A803423FB181C881C23FB181A88E7
:100240001E23FB181988F86802230093230000F08E
:1002500003FB3423FB181C881C23FB181A881A2361
:10026000FB181988F86801230093230000F0F4FAC2
:100270003423FB181C881823FB181A881E23FB182C
:100280001988F86804230093230000F0E5FA34236A
:10029000FB181C881823FB181A881A23FB181988C6
:1002A000F86808230093230000F0D6FA1623FB1801
:1002B000BA1D12881A801623FB181622B918342288
:1002C000BA18098812888A1A1A801623FB1816226F
:1002D000B9183422BA18098812888A1A1A80142385
:1002E000FB183022BA1812881A801423FB18142223
:1002F000B9183422BA18098812888A1A1A80142365
:10030000FB181422B9183422BA18098812888A1ADC
:100310001A801E23FB181A881E23FB1801321A802C
:100320001C23FB181A881C23FB1801321A80162381
:10033000FB181B88022B2CD91623FB181622BA187F
:100340001288023A1A803023FB181B883022BA1810
:10035000013B13801623FB181C880823FB181A88FE
:100360001E23FB181988F868230001F0F7FB082307
:10037000FB183022B9181A880B88D3189AB21623A2
:10038000FB181C881E23FB181988F868230001F04D
:10039000E5FB1423FB181B88022B2BD91423FB1815
:1003A0001422BA181288023A1A80BB1D1A88BB1D83
:1003B000013A1A801423FB181C881C23FB181A8886
:1003C0000A23FB181988F868230001F0EBFB0A23C5
:1003D000FA18BB1D12881B88D31899B21423FB1876
:1003E0001C881C23FB181A88F868230001F0DAFB2C
:1003F00000E0C046BD4608B0B0BD80B584B000AFD7
:1004000078607B681B681B7CFB607B6838229B5C88
:100410001A00FB685343FB60FB68DB00FB607B68F2
:100420005B6BFA680021180007F088FEC046BD46E5
:1004300004B080BD80B586B002AF786008001100BE
:10044000FB1C021C1A70BB1C0A1C1A707B681A6801
:100450000F23FB18127C1A700C23FB18FA1C12785D
:100460001A807B685B6BBB600F23FB181B789AB20A
:100470000C23FB180C21791809884A431A800C2395
:10048000FB180C22BA181288D2001A800C23FB1811
:100490001B88BA68D318BB600F23FB181978BB1CE4
:1004A0001A787868BB6800930B00002102F0C4F949
:1004B000C046BD4604B080BD80B584B000AF786052
:1004C0000F23FB1800221A700D23FB187A683821BD
:1004D000525C1A700E23FB187A683921525C1A702C
:1004E0007B681A680C23FB18527C1A700E23FB18C9
:1004F0001A780F23FB1819787B681800FFF79AFF0A
:100500000F23FB181A780F23FB1801321A700E23E1
:10051000FB181A780E23FB1801321A700F23FA18F1
:100520000D23FB1812781B789A4207D20E23FA1873
:100530000C23FB1812781B789A42D7D3C046BD46CD
:1005400004B080BD80B582B000AF78607B681800D1
:10055000FFF7B2FF7B68180002F0E2F9C046BD4623
:1005600002B080BD90B585B000AFF8600C001000FF
:1005700019000A23FB18221C1A800823FB18021CEE
:100580001A80BB1D0A1C1A802423FB181B78012229
:10059000134025D0BA1D0A23FB1812881B88D318D4
:1005A00099B22023FA180823FB1812881B88D31A43
:1005B0009AB2FB68180001F019FBBA1D0823FB185A
:1005C00012881B88D31899B22023FA180A23FB1823
:1005D00012881B88D31A9AB2FB68180001F006FB38
:1005E0002423FB181B780222134025D0BA1D0A23AE
:1005F000FB1812881B88D31A99B22023FA180823F3
:10060000FB1812881B88D31A9AB2FB68180001F0F5
:10061000EDFABA1D0823FB1812881B88D31A99B269
:100620002023FA180A23FB1812881B88D31A9AB2BF
:10063000FB68180001F0DAFA2423FB181B78082263
:10064000134025D0BA1D0A23FB1812881B88D31823
:1006500099B22023FA180823FB1812881B88D31894
:100660009AB2FB68180001F0C1FABA1D0823FB1802
:1006700012881B88D31899B22023FA180A23FB1872
:1006800012881B88D3189AB2FB68180001F0AEFAE2
:100690002423FB181B780422134025D0BA1D0A23FB
:1006A000FB1812881B88D31A99B22023FA18082342
:1006B000FB1812881B88D3189AB2FB68180001F047
:1006C00095FABA1D0823FB1812881B88D31A99B211
:1006D0002023FA180A23FB1812881B88D3189AB211
:1006E000FB68180001F082FAC046BD4605B090BD17
:1006F00090B58BB002AFF8600C00100019000A230F
:10070000FB18221C1A800823FB18021C1A80BB1D30
:100710000A1C1A801E23FB1801221A801E23FB18B4
:100720001A88BB1D1B88D31A9AB21E23FB181A8085
:100730001C23FB1801221A801A23FB1800221A809E
:100740001A23FB181A88BB1D1B88D31A9AB21A23C6
:10075000FB181A801A23FB181B88DB189AB21A237D
:10076000FB181A801823FB1800221A801623FB1886
:10077000BA1D12881A800A23FB181C881623FB183E
:100780001A881823FB181988F8683023FB181B787F
:1007900001930823FB181B8800932300FFF7E2FE58
:1007A0004EE01E23FB1800229B5E002B19DB162354
:1007B000FB181A881623FB18013A1A801A23FB1813
:1007C0001B8802339AB21A23FB181A801E23FB18C7
:1007D0001A881A23FB181B88D3189AB21E23FB18F9
:1007E0001A801823FB181A881823FB1801321A8064
:1007F0001C23FB181B8802339AB21C23FB181A8097
:100800001E23FB181A881C23FB181B88D3189AB2C6
:100810001E23FB181A800A23FB181C881623FB18BA
:100820001A881823FB181988F8683023FB181B78DE
:1008300001930823FB181B8800932300FFF792FE07
:100840001823FA181623FB1812881B889A42A8D37B
:10085000C046BD4609B090BDB0B586B002AFF860E5
:100860000C00100019000A23FB18221C1A80082310
:10087000FB18021C1A80BB1D0A1C1A800A23FA18D6
:10088000BB1D12881B88D31A99B20823FA18BB1D06
:1008900012881B88D31A9CB20A23FA18BB1D12882F
:1008A0001B88D3189BB201339DB20823FA18BB1DD5
:1008B00012881B88D3189BB201339BB2F86800934F
:1008C0002B00220001F00FFA031E10D0BB1D1C8864
:1008D0000823FB181A880A23FB181988F8682023B4
:1008E000FB181B7800932300FFF702FF00E0C046CF
:1008F000BD4604B0B0BD000080B582B000AF7860E6
:100900007B6807221A70024B1800BD4602B080BDFA
:10091000AC00002090B589B002AFF860B9607A6091
:100920003B607C680E4A0F49F8683B6800932300DF
:1009300002F0C4FA1323FB181800FFF7DDFF0300D1
:100940007B611323FB181A78074C7969F868BB6838
:100950000093230001F04EFCC046BD4607B090BD99
:100960000D270000892D0000D11F000080B582B046
:1009700000AF78600A00FB1C1A70FB1C1B787A68B9
:10098000D3187B607B681B781800BD4602B080BD21
:1009900080B584B000AF78600A00FB1C1A70FB1CA5
:1009A0001B787A68D3187B607B681A780E23FB1853
:1009B0001A807B6801337B600E23FB180E22BA1865
:1009C000128812021A807B681B7899B20E23FB18DA
:1009D0000E22BA1812888A181A800E23FB181B8858
:1009E0001800BD4604B080BD80B582B000AF78600D
:1009F00039603B6800211800FFF7B8FF03001A00B8
:100A00007B681A703B6801211800FFF7AFFF0300F5
:100A10001A007B685A703B6802211800FFF7A6FF96
:100A200003001A007B689A703B6803211800FFF7E7
:100A30009DFF03001A007B68DA703B6804211800F0
:100A4000FFF794FF03001A007B681A713B680521C9
:100A50001800FFF78BFF03001A007B685A713B6890
:100A600006211800FFF782FF03001A007B689A71C5
:100A70003B6807211800FFF779FF03001A007B6825
:100A8000DA713B6808211800FFF770FF03001A00B5
:100A90007B681A723B6809211800FFF767FF0300A3
:100AA0005AB27B685A723B680A211800FFF75EFF52
:100AB00003005AB27B689A723B680B211800FFF75B
:100AC00055FF03005AB27B68DA723B680C211800AC
:100AD000FFF74CFF03005AB27B681A733B680D2185
:100AE0001800FFF743FF03005AB27B685A733B6854
:100AF0000E211800FFF73AFF03005AB27B689A7381
:100B00003B680F211800FFF731FF03005AB27B68E2
:100B1000DA733B6810211800FFF728FF03005AB270
:100B20007B681A743B6811211800FFF731FF03003E
:100B30001A007B685A823B6813211800FFF728FFD0
:100B400003001A007B689A823B6815211800FFF7A2
:100B50001FFF03001A007B68DA82C046BD4602B060
:100B600080BD80B584B000AF78600A00FB1C1A70AD
:100B70000D23FB187A68127B1A707B681A680F23A2
:100B8000FB1812781A700F23FB181A780D23FB1824
:100B90001B781A410F23FB181A700E23FB180D2225
:100BA000BA1812781A700E23FB180E22B918FA1C04
:100BB000097812788A181A700E23FB181B78072BF5
:100BC0002CD90C23FB1808221A700C23FB180C22BA
:100BD000B9180D22BA18097812788A1A1A707B6827
:100BE0001B685A1C7B681A607B681B681B781A009C
:100BF0000C23FB181B789A4013005AB20F23FB18E2
:100C00001B785BB213435AB20F23FB181A700E23E2
:100C1000FB180E22BA181278083A1A70FB1C1B78BF
:100C200001229A401300DBB2013BDAB20F23FB181A
:100C30000F21791809780A401A707B680E22BA18B9
:100C400012781A730F23FB181B781800BD4604B0E6
:100C500080BD80B584B000AF78600A00FB1C1A70BC
:100C6000FB1C1A787B6811001800FFF77AFF03005D
:100C70001A000F23FB181A700E23FB1801221A709A
:100C8000FB1C1A78FB1C013A1A700E23FB18002279
:100C90009A56FB1C1B789A400E23FB181A700F23E0
:100CA000FB181A780E23FB181B78D31ADAB20F231D
:100CB000FB181A700F23FB181B785BB21800BD4697
:100CC00004B080BDB0B582B000AF05000C001000CC
:100CD0001900BB1D2A1C1A807B1D221C1A703B1D8B
:100CE000021C1A70FB1C0A1C1A70FB1C1B78012BBF
:100CF0000DD0022B15D0002B1DD13B1D1B785BB2F4
:100D000099B2BB1DBA1D12888A181A801DE07B1D7E
:100D10001B785BB299B2BB1DBA1D12888A181A8063
:100D200013E03B1D1B785BB29AB2BB1DB91D09884D
:100D30008A1A1A8009E07B1D1B785BB29AB2BB1D30
:100D4000B91D09888A1A1A80C046BB1D1B88180065
:100D5000BD4602B0B0BDB0B582B000AF05000C001A
:100D600010001900BB1D2A1C1A807B1D221C1A7042
:100D70003B1D021C1A70FB1C0A1C1A70FB1C1B7802
:100D8000012B0DD0022B15D0002B1DD17B1D1B7804
:100D90005BB299B2BB1DBA1D12888A181A801DE079
:100DA0003B1D1B785BB29AB2BB1DB91D09888A1A1C
:100DB0001A8013E07B1D1B785BB29AB2BB1DB91D74
:100DC00009888A1A1A8009E03B1D1B785BB299B228
:100DD000BB1DBA1D12888A181A80C046BB1D1B880D
:100DE0001800BD4602B0B0BDB0B588B002AF7860A3
:100DF00008001100FB1C021C1A70BB1C0A1C1A7094
:100E00007B6860333B611723FB18FA1C12781A7059
:100E10003B6908229A561523FB181A703B69092270
:100E20009A561423FB181A703B690A229A560F230C
:100E3000FB181A700F23FB180F22B9181522BA18C5
:100E4000097812788A1A1A701623FB180F22BA181A
:100E500012781A701723FA180F23FB1812781B78D0
:100E60009A4205D21623FB181722BA1812781A7064
:100E70000C23FB183A6992881A800A23FB183A69F6
:100E8000D2881A801523FB18002159561423FB1809
:100E900000229A563B691D7C0C23FC180C23FB187E
:100EA00018882B00FFF757FF030023801523FB183A
:100EB000002159561423FB1800229A563B691D7CC9
:100EC0000A23FC180A23FB1818882B00FFF7FAFEE8
:100ED00003002380BB1C1B78002B17D03B69997B38
:100EE0007B68922299541623FB181B789DB23B69AC
:100EF0001B7C0A22BA1814880C22BA181188786848
:100F000000932B00220000F070FD1AE03B695B7B30
:100F1000002B16D13B69D97B7B689222995416230A
:100F2000FB181B789DB23B691B7C0A22BA181488F7
:100F30000C22BA181188786800932B00220000F068
:100F400054FD1723FA180F23FB1812781B789A42C6
:100F500015D31723FB181722B9180F22BA180978CE
:100F600012788A1A1A701523FB1800221A7014239B
:100F7000FB181A781423FB1801321A7054E7C04684
:100F80001523FB181522B9181722BA1809781278F8
:100F90008A181A701523FB1800229A563B691A7298
:100FA0001423FB1800229A563B695A72C046BD466C
:100FB00006B0B0BD80B584B000AF786039607B68A2
:100FC0006033FB60FB683A681A60FB6800221A73A2
:100FD0007B6878229A5CFB6811001800FFF7C1FD5E
:100FE00003005AB2FB689A727B6879229A5CFB68AC
:100FF00011001800FFF7B5FD03005AB2FB68DA7262
:101000007B6892229A5CFB689A73FB689B7B5A42CE
:101010005341DBB21A00FB68DA73C046BD4604B028
:1010200080BD90B58BB002AF786039607B6860336B
:101030007B613A687B6811001800FFF7BBFF132340
:10104000FB187A686B21525C1A707B687A229A5C72
:101050001223FC187B6911001800FFF7FAFD03004A
:1010600023707B687B229A5C1123FC187B6911003A
:101070001800FFF7EEFD030023707B687C229A5C6A
:101080001023FC187B6911001800FFF7E2FD030034
:1010900023707B699B7A5BB2002B00DC4CE17B699F
:1010A00098881323FB181A781123FB181B78D31880
:1010B000DBB25B42DBB25AB27B691C7C1223FB18A9
:1010C000002159562300FFF746FE03001A007B69F2
:1010D0009A807B69D8881323FB181A781123FB1890
:1010E0001B78D318DBB25B42DBB25AB27B691C7C43
:1010F0001223FB18002159562300FFF7E3FD0300DC
:101100001A007B69DA801E23FB187A6992881A809C
:101110001A23FB187A69D2881A801C23FB181E2216
:10112000BA1812881A801823FB181A22BA181288C3
:101130001A807B691B7C012B21D002DC002B06D09E
:101140009DE0022B41D0032B00D172E097E07B6938
:101150009B7A5BB299B21C23FB181C22BA18128826
:101160008A181A801323FB181B785BB299B21823D4
:10117000FB181822BA1812888A181A807FE01323E5
:10118000FB181B785BB29AB21E23FB181E2179183C
:1011900009888A1A1A801E23FB181A881E23FB1836
:1011A00001321A801C23FB181A881C23FB180132F9
:1011B0001A807B699B7A5BB299B21823FB181822BC
:1011C000BA1812888A181A8059E07B699B7A5BB238
:1011D0009AB21E23FB181E21791809888A1A1A80D0
:1011E0001E23FB181A881E23FB1801321A801C23A9
:1011F000FB181A881C23FB1801321A801323FB18D2
:101200001B785BB29AB21A23FB181A217918098845
:101210008A1A1A801A23FB181A881A23FB1801321B
:101220001A801823FB181A881823FB1801321A8019
:1012300025E01323FB181B785BB299B21C23FB1823
:101240001C22BA1812888A181A807B699B7A5BB2B2
:101250009AB21A23FB181A21791809888A1A1A8057
:101260001A23FB181A881A23FB1801321A80182334
:10127000FB181A881823FB1801321A80C0461C2359
:10128000FB181C881A23FB181A881E23FB181988C0
:1012900078681823FB181B880093230000F023FDB7
:1012A000031E04D11023FB181B785BB248E07B6956
:1012B00000221A727B6900225A727B6876229A5C3D
:1012C0000F23FC187B6911001800FFF74AFC03008C
:1012D00023707B6877229A5C0E23FC187B691100CF
:1012E0001800FFF73EFC030023700F23FB1819784A
:1012F0007B6800221800FFF777FD0E23FB18197892
:101300007B6801221800FFF76FFD7B69012118003F
:10131000FFF727FC031EE8D17B695B7A5BB21322DF
:10132000BA18127852B29A4200DDC6E7C0467B690D
:10133000997B7B68922299541023FB181B785BB22F
:101340001800BD4609B090BD90B587B000AF786079
:101350000A00BB1C1A807B689B6D7B617B6917331D
:101360007B61BB1C1B88FF2B2DD8BB1C1B88602BF3
:1013700007D97B6888229B5A1A007B699B187B617E
:101380000AE0BB1C1B88402B06D97B6886229B5A2F
:101390001A007B699B187B617B6901331B78002BEA
:1013A00065D07B691B789BB2BA1C12889A4202D125
:1013B0007B6902335FE07B6901331B781A007B692C
:1013C0009B187B61E8E77B688A229B5A1A007B693D
:1013D0009B187B617B693B613B6900211800FFF72B
:1013E000D7FA03001A007B699B187B610E23FC1857
:1013F0003B6902211800FFF7CBFA030023803B6909
:1014000004333B610E23FA18BB1C12881B889A42D6
:10141000E2D37B691A780E23FB181A800E23FB187F
:101420000E22BA18128812021A807B6901331B78C7
:1014300099B20E23FB180E22BA1812880A431A809A
:101440000E23FB181B88002B13D00E23FA18BB1C8D
:1014500012881B889A4202D17B6903330BE07B69B7
:1014600002331B781A007B699B187B61D1E7C04669
:1014700000E0C04600231800BD4607B090BD90B5FF
:1014800087B000AFF8600C00100019000A23FB18A9
:10149000221C1A800823FB18021C1A80BB1D0A1C80
:1014A0001A801623FB1800221A80FB680A22BA1839
:1014B000642112885A52FB680822BA1866211288E1
:1014C0005A52BB1D1A88FB6811001800FFF73CFF39
:1014D00003003B613B69002B0AD03A69FB681100AD
:1014E0001800FFF79EFD03001A001623FB181A8050
:1014F0001623FB181B881800BD4607B090BD90B599
:1015000085B000AFF8600C00100019000A23FB182A
:10151000221C1A800823FB18021C1A80BB1D0A1CFF
:101520001A80FB6870229B5C012B17D002DC002B19
:1015300005D040E0022B20D0032B2DD03BE0FB68F0
:10154000DB6DFA6810009847030019000823FB18A8
:101550000822BA1812888A181A802CE0FB68DB6D02
:10156000FA6810009847030019000A23FB180A22A2
:10157000BA181288521A1A801DE0FB68DB6DFA68EF
:1015800010009847030019000823FB180822BA1816
:101590001288521A1A800EE0FB68DB6DFA681000A0
:1015A0009847030019000A23FB180A22BA18128868
:1015B0008A181A80C046BB1D1C880823FB181A888D
:1015C0000A23FB181988F8682300FFF758FF030067
:1015D0001800BD4605B090BDB0B586B000AFF8604C
:1015E000080011007B600A23FB18021C1A800823E4
:1015F000FB180A1C1A80FB68180000F076FF1623FF
:10160000FB1800221A80FB685B687A681178142244
:10161000BC18FA6810009847030023801423FB18B5
:101620001B88354A93425ED07B6801337B6014236C
:10163000FB181B88314A9342E5D01223FC1814236F
:10164000FB181D880823FB181A880A23FB18198821
:10165000F8682B00FFF753FF03002380FB6870221C
:101660009B5C012B13D002DC002B05D030E0022B59
:1016700018D0032B21D02BE00A23FB180A22B9181B
:101680001222BA18098812888A181A8020E00823C2
:10169000FB180822B9181222BA18098812888A1869
:1016A0001A8015E00A23FB180A22B9181222BA1868
:1016B000098812888A1A1A800AE00823FB1808226F
:1016C000B9181222BA18098812888A1A1A80C046D4
:1016D0001623FB181622B9181222BA180988128884
:1016E0008A181A808FE7C0461623FB181B8818003B
:1016F000BD4606B0B0BDC046FFFF0000FEFF0000C3
:1017000090B585B000AFF860080011007B600A2337
:10171000FB18021C1A800823FB180A1C1A80FB689D
:10172000084A5A607C680823FB181A880A23FB18A9
:101730001988F8682300FFF74FFF03001800BD4623
:1017400005B090BD0525000080B582B000AF78607F
:101750007B689B6D002B5DD07B68812299567B68EE
:101760008E2299547B68822299567B688F229954E5
:101770007B688D229B5C002B4DD07B688D229B5C0F
:10178000012B1CD17B688E229A567B6883215B5685
:101790009A4205DA7B68832299567B688E22995497
:1017A0007B688F229A567B6884215B569A4232DD91
:1017B0007B68842299567B688F2299542BE07B6842
:1017C0008E229B5619007B687E229B5618007B68F0
:1017D00080229B56C31899420DDA7B687E229B5665
:1017E000DAB27B6880215B56DBB2D318DBB259B228
:1017F0007B688E2299547B688F229A567B68802161
:101800005B569A4207DD7B68802299567B688F225F
:10181000995400E0C046BD4602B080BD80B582B09C
:1018200000AF786000231800BD4602B080BD000004
:1018300080B582B000AF78607B68034ADA65C04645
:10184000BD4602B080BDC0461D18000080B582B004
:1018500000AF786039607B689A6D3B689A420DD022
:101860007B683A689A657B6874333A68110018009F
:10187000FFF7BAF87B681800FFF766FFC046BD4661
:1018800002B080BD80B586B000AFF860B9601900C5
:10189000BB1D1A803B1D0A1C1A801623FB18FA6810
:1018A00012881A801423FB181622BA1812881A807C
:1018B000BB6819881423FB181422BA1812888A18D6
:1018C0001A801623FA181423FB1812881B889A42D0
:1018D00018D91623FA183B1D12881B889A420CD27D
:1018E0001423FB183A1D12881A801423FB181A8837
:1018F0001423FB18013A1A8004E01623FB18BA1DC2
:1019000012881A801623FA183B1D12881B889A42E7
:1019100001D3002335E01423FA18BB1D12881B885D
:101920009A4201D800232CE01623FA18BB1D128816
:101930001B889A4204D21623FB18BA1D12881A80FB
:101940001423FA183B1D12881B889A4204D91423C9
:10195000FB183A1D12881A80FB681622BA181288E2
:101960001A801423FB181422B9181622BA180988F1
:1019700012888A1A1A80BB681422BA1812881A8030
:1019800001231800BD4606B080BDB0B586B002AFD9
:10199000F8600C00100019000A23FB18221C1A80A2
:1019A0000823FB18021C1A80BB1D0A1C1A80FB6846
:1019B000DA8F0823FB180821791809888A1A1A80F7
:1019C000FB68DC6ABB1D1D880823FB181A880A23E4
:1019D000FB181988F8682023FB181B7800932B004C
:1019E000A047C046BD4604B0B0BDB0B586B002AF9A
:1019F000F8600C00100019000A23FB18221C1A8042
:101A00000823FB18021C1A80BB1D0A1C1A80FB68E5
:101A10008C229B5C002B00D19DE0BB1D1B88002B02
:101A200000D198E0BB1D1B88012B2ED92023FB1869
:101A30001B78022B12D10A23FB181A88BB1D1B88A6
:101A4000D31A9AB20A23FB181A800A23FB181B88A0
:101A500001339AB20A23FB181A8016E02023FB18E0
:101A60001B78032B11D10823FB181A88BB1D1B8878
:101A7000D31A9AB20823FB181A800823FB181B8874
:101A800001339AB20823FB181A802023F918202367
:101A9000FB181B78012213400B702023FB181B78C6
:101AA000002B1ED1FB684C229A5A0823FB181B8876
:101AB0009A4247D8FB684E229A5A0823FB181B8883
:101AC0009A4241D9FB6848229C5AFB684A229B5A99
:101AD000B91D0A22B8182200FFF7D4FE031E1ED13A
:101AE00039E0FB6848229A5A0A23FB181B889A425D
:101AF0002CD8FB684A229A5A0A23FB181B889A4260
:101B000026D9FB684C229C5AFB684E229B5AB91D71
:101B10000822B8182200FFF7B5FE031E1AD0FB6892
:101B20001B6B9C680A23FB1819880823FB181A886A
:101B3000BB1D1D88F8682023FB181B7800932B0021
:101B4000A04708E0C04606E0C04604E0C04602E008
:101B5000C04600E0C046BD4604B0B0BD90B587B0F9
:101B600002AFF8600C00100019000A23FB18221CB9
:101B70001A800823FB18021C1A80BB1D0A1C1A803D
:101B8000BB1D1C880823FB181A880A23FB18198818
:101B9000F868002300932300FFF727FFC046BD46E7
:101BA00005B090BD90B587B002AFF8600C00100092
:101BB00019000A23FB18221C1A800823FB18021C98
:101BC0001A80BB1D0A1C1A80BB1D1C880823FB1829
:101BD0001A880A23FB181988F86801230093230048
:101BE000FFF703FFC046BD4605B090BD80B584B089
:101BF00002AF786008001100BB1C021C1A803B0079
:101C00000A1C1A807B684C229B5A3A0012889A421E
:101C10001FD37B684E229B5A3A0012889A421AD2EE
:101C20007B6848229B5ABA1C12889A4215D37B685B
:101C30004A229B5ABA1C12889A4210D23B001A8838
:101C4000BB1C19887868002300930123FFF7CDFEA1
:101C500006E0C04604E0C04602E0C04600E0C046E0
:101C6000BD4602B080BDB0B582B000AF05000C002B
:101C700010001900BB1D2A1C1A803B1D221C1A8053
:101C8000BB1C021C1A803B000A1C1A80BA1C3B1D9C
:101C900012881B889A4211D23A00BB1D12881B88F9
:101CA0009A4201D901231AE0BA1C3B0012881B8812
:101CB0009A4201D9012312E0002310E03A00BB1D33
:101CC00012881B889A4209D9BA1C3B0012881B88CB
:101CD0009A4201D9012302E0002300E0002318000A
:101CE000BD4602B0B0BD90B585B000AFF8600C0045
:101CF000100019000A23FB18221C1A800823FB1865
:101D0000021C1A80BB1D0A1C1A80FB684C22985AC0
:101D1000FB684E22995A2023FB181C880823FB18C5
:101D20001A882300FFF79FFF031E01D100230EE056
:101D3000FB684822985AFB684A22995ABB1D1C88A6
:101D40000A23FB181A882300FFF78DFF03001800F1
:101D5000BD4605B090BD000090B589B000AFF860F9
:101D60000C00100019000A23FB18221C1A800823FB
:101D7000FB18021C1A80BB1D0A1C1A801323FB18B7
:101D800000221A700A23FA18BB1D12881B889A4277
:101D900009D91A23FB180A22B918BA1D0988128812
:101DA0008A1A1A8008E01A23FB18B91D0A22BA18E9
:101DB000098812888A1A1A800823FB183022B91859
:101DC0001A880B889A420AD91823FB180822BA18D5
:101DD00030217818118802888A1A1A8009E018239D
:101DE000FB183022B9180822BA18098812888A1AF2
:101DF0001A801823FA181A23FB1812881B889A4293
:101E000037D91323FB1801221A701023FB181A224A
:101E1000BA1812881A801A23FB181822BA181288C6
:101E20001A801823FB181022BA1812881A8010235F
:101E3000FB180A22BA1812881A800A23FB180822F3
:101E4000BA1812881A800823FB181022BA181288B0
:101E50001A801023FB18BA1D12881A80BB1D30226D
:101E6000BA1812881A803023FA181023FB181B881E
:101E700013800A23FA18BB1D12881B889A4221D9A5
:101E80001023FB180A22BA1812881A800A23FB189A
:101E9000BA1D12881A80BB1D1022BA1812881A8027
:101EA0001023FB180822BA1812881A800823FB187E
:101EB0003022BA1812881A803023FA181023FB181F
:101EC0001B8813801A23FB181B885B089AB2162301
:101ED000FB181A803023FA180823FB1812881B8875
:101EE0009A4204D91423FB1801221A8004E0142317
:101EF000FB18012252421A801C23FB180822BA1830
:101F000012881A80BB1D1B88304A934204D1BB1D26
:101F10001A88BB1D013A1A801E23FB180A22BA1820
:101F200012881A8046E01323FB181B78002B0AD175
:101F30001C23FB181A881E23FB181988FB6818003D
:101F4000FFF754FE09E01E23FB181A881C23FB1818
:101F50001988FB681800FFF749FE1623FB181A883A
:101F60001823FB181B88D31A9AB21623FB181A8061
:101F70001623FB1800229B5E002B14DA1423FB1897
:101F800019881C23FB181C22BA1812888A181A8078
:101F90001623FB181A881A23FB181B88D3189AB229
:101FA0001623FB181A801E23FB181A881E23FB1801
:101FB00001321A801E23FA18BB1D12881B889A4210
:101FC000B1D9C046BD4609B090BDC046FFFF000074
:101FD00090B589B000AFF8600C00100019000A231A
:101FE000FB18221C1A800823FB18021C1A80BB1D38
:101FF0000A1C1A801B23FB180822BA1812881A70B0
:102000001B23FB181B22BA18127807210A401A70EA
:102010001823FB1801221A701823FB181A781B23A7
:10202000FB181B789A401823FB181A701A23FB1808
:1020300000221A701923FB1800221A70FB689222E2
:102040009B5C012B05D81A23FB181822BA181278AA
:102050001A70FB6892229B5C012B05D01923FB1898
:102060001822BA1812781A701623FB180822BA1808
:1020700012881A801623FB181622BA181288072114
:102080008A431A80FB681B681B7C9AB21623FB18D4
:102090001621791809884A431A80FB685B6BFB613B
:1020A0001623FB181B88FA69D318FB610A23FB1857
:1020B0001B88FA69D318FB613023FB181B78002BAF
:1020C0001ED1FB691A781A23FB181B781343DAB266
:1020D000FB691A70FB691A781923FB181B785340A7
:1020E000DAB2FB691A70FB690133FB61BB1D1A8808
:1020F000BB1D013A1A80BB1D1B88002BE1D155E0A6
:10210000FB691A781A23FB181B781343DAB2FB69B0
:102110001A70FB691A781923FB181B785340DAB23E
:10212000FB691A701B23FB181A781B23FB1801325A
:102130001A701B23FB181B22BA18127807210A40B9
:102140001A70BB1D1A88BB1D013A1A801B23FB188D
:102150001B78002B18D1FB685B8F1A00FB699B185A
:10216000FB61FB6892229B5C012B03D81A23FB18AE
:1021700001221A70FB6892229B5C012B12D019235A
:10218000FB1801221A700DE01A23FA181A23FB1803
:102190001B78DB1813701923FA181923FB181B7806
:1021A000DB181370BB1D1B88002BA9D1C046BD4690
:1021B00009B090BD80B582B000AF78607B685022D6
:1021C000002199527B685422002199527B68522247
:1021D0000121494299527B68562201214942995274
:1021E0007B681B6B5B687A6810009847C046BD46E9
:1021F00002B080BD80B584B000AFF860B9603B60CC
:10220000FB1D1A70FB6800229A65FB683A68DA6267
:10221000FB68BA685A63FB68FA1D382112785A5471
:10222000FB68392200219954FB686D2200219954E2
:10223000FB68912200219954FB688D22002199545A
:10224000FB68922201219954FB6893220121995441
:10225000FB68BA691A63FB681B6B1B68FA6810009D
:102260009847FB681800FFF7A5FFFB681800FFF709
:10227000DFFAFB68702200219954C046BD4604B0C5
:1022800080BD80B584B000AF78607B681B68BB60A0
:102290007B6838229A5C0E23FB181A800E23FB18E9
:1022A0000E22BA181288D2001A807B680E22BA1841
:1022B00012889A87BB681A7C0E23FB181A800E239B
:1022C000FB180E22BA181288D2001A807B680E22E0
:1022D000BA1812885A877B6839229A5C0E23FB1839
:1022E0001A800E23FB180E22BA181288D2001A8008
:1022F0007B680E22BA181288DA877B6838229A5CCB
:102300000E23FB181A800E23FB181B887A683921CC
:10231000525C9B18BA68527C93420ADDBB685B7CB6
:1023200099B27B6839229B5C9AB20E23FB188A1AF9
:102330001A800E23FB180E22BA181288D2001A80B7
:102340007B68D98F7B68402299527B684022995ADA
:102350007B68422299527B6842229A5A0E23FB18CC
:102360001B88D31899B27B6842229952BB68998A1C
:102370007B6844229952BB68D98A7B68462299526D
:10238000C046BD4604B080BDB0B584B002AF786031
:102390007B685022995A7B6854229C5A7B6852224F
:1023A0009D5A7B6856229B5A786800932B00220026
:1023B000FFF799FC031E04D17B688C2200219954FD
:1023C0003BE07B688C22012199547B6848229A5A11
:1023D0007B6850215B5A9A4205D27B685022995AF9
:1023E0007B68482299527B684A229A5A7B6852211C
:1023F0005B5A9A4205D97B685222995A7B684A22D5
:1024000099527B684C229A5A7B6854215B5A9A42B3
:1024100005D27B685422995A7B684C2299527B687A
:102420004E229A5A7B6856215B5A9A4205D97B689C
:102430005622995A7B684E229952C046BD4602B038
:10244000B0BD80B582B000AF78607B681800FFF740
:1024500018FFC046BD4602B080BD80B582B000AF57
:1024600078607B684822002199527B684422995AFF
:102470007B684A2299527B684022995A7B684C2299
:1024800099527B684222995A7B684E2299527B6806
:102490001800FFF779FFC046BD4602B080BD90B579
:1024A00087B002AFF8600C00100019000A23FB1877
:1024B000221C1A800823FB18021C1A80BB1D0A1C50
:1024C0001A80BB1D1C880823FB181A880A23FB18D6
:1024D0001988F8682023FB181B7800932300FFF766
:1024E00054FAC046BD4605B090BD80B582B000AF7D
:1024F00078607B68262200219954C046BD4602B010
:1025000080BD000080B582B000AF78600A00FB1C7F
:102510001A70FB1C1B78002B03D0FB1C1B780A2BAA
:1025200001D1044B02E0FB1C1B789BB21800BD4696
:1025300002B080BDFFFF000090B585B000AFF8602D
:102540007A600B23FB180A1C1A70FB681C697968F7
:102550000B23FB181A78F8680B001721A04703001B
:102560001800BD4605B090BD80B582B000AF786060
:102570000A00FB1C1A70FA1C7B6801211800FFF787
:10258000DBFF03001800BD4602B080BD90B583B0EC
:1025900000AF78600A00FB1C1A707B68DC68FB1CCB
:1025A0001A78786800231521A04703001800BD465B
:1025B00003B090BD90B583B000AF78600A00FB1CFB
:1025C0001A707B68DC68FB1C1A7878680023162177
:1025D000A04703001800BD4603B090BD90B585B07C
:1025E00000AFF8607A600B23FB180A1C1A70FB68B6
:1025F000DC6879680B23FB181A78F8680B00172140
:10260000A04703001800BD4605B090BD90B583B04B
:1026100000AF78607B68DC687868002300221821AE
:10262000A04703001800BD4603B090BD90B583B02D
:1026300000AF78607B68DC6878680023002219218D
:10264000A04703001800BD4603B090BD90B585B00B
:1026500000AF786039600F23FB183A6812781A705F
:102660003B6801333B600F23FB181B78172B1CD0F2
:1026700002DC152B45DB04E0192B26DDFE2B2ED0CA
:102680003FE03B681A780E23FB181A707B68DC6801
:102690000E23FB181A780F23FB181978786800238B
:1026A000A0473B6801333B602AE03B681A780E2361
:1026B000FB181A700E23FA187B6801211800FFF727
:1026C0008DFF3B6801333B601AE07B68DC680F23B9
:1026D000FB181978786800230022A04710E03B68B7
:1026E0001A780E23FB181A700E23FB181A787B68D1
:1026F0002921180000F088FB3B6801333B60C0468D
:10270000A9E7C046BD4605B090BD0000B0B584B095
:1027100000AFF860080011007B600B23FB18021C5F
:102720001A700A23FB180A1C1A700B23FB181B785B
:10273000143B052B24D89A00154BD3181B689F46D1
:102740000A23FB181A78FB6811001800FFF70CFF2A
:1027500018E00A23FB181A78FB6811001800FFF72D
:1027600003FF0FE0FB681C697D680A23FB181A78D9
:102770000B23FB181978F8682B00A047030002E030
:10278000002300E001231800BD4604B0B0BDC046E0
:102790002C8E000080B582B000AF786039607B6815
:1027A0003A681A607B681B68997C7B68222299547E
:1027B000C046BD4602B080BD90B583B000AF786022
:1027C0007B685C697868002300222821A0477B6829
:1027D000DC687868002300221421A0477B6801226E
:1027E0004B21180000F010FB7B681B681A797B688E
:1027F0002921180000F008FB7B6800224B211800FB
:1028000000F002FB7B681B681A797B68292118009D
:1028100000F0FAFA7B6801224B21180000F0F4FA6C
:102820007B681B685A797B682921180000F0ECFA54
:10283000C046BD4603B090BD90B585B000AF78608E
:102840000C0010001900FB1C221C1A70BB1C021C7F
:102850001A707B1C0A1C1A700823FB18FA1C1278C9
:102860005A710823FB18BA1C12789A710823FB18B6
:102870007A1C12781A710823FB183A6A1A607B686E
:102880009C680823FB18786801220F21A0470300E9
:102890001800BD4605B090BD90B583B000AF78601C
:1028A0007B689C687868002300220921A047C04605
:1028B000BD4603B090BD90B583B000AF78607B6833
:1028C0009C687868002300220A21A047C046BD46C4
:1028D00003B090BD90B583B000AF78600A00FB1CD8
:1028E0001A707B689C68FB1C1A78786800230B219F
:1028F000A047C046BD4603B090BD90B583B000AFC1
:1029000078600A00FB1C1A707B689C68FB1C1A78B4
:10291000786800230E21A047C046BD4603B090BD95
:1029200090B583B000AF78607B689C6878680023BE
:1029300000221021A047C046BD4603B090BD000054
:1029400080B588B000AFF860080011007B600B23F1
:10295000FB18021C1A700A23FB180A1C1A700B239E
:10296000FB181B780E2B18D00F2B00D1CFE00B2BB0
:1029700000D001E20A23FB181B78002B06D1C64ABF
:10298000FB6811001800FFF761FEF7E1C34AFB681E
:1029900011001800FFF75AFEF0E1FB681800FFF77E
:1029A00035FEFB6805211800FFF7F0FD0A23FB1830
:1029B0001B789B00DB135BB2012213405AB20A233F
:1029C000FB181B789B005B135BB202210B405BB2D0
:1029D00013435AB20A23FB181B789B00DB125BB22D
:1029E00004210B405BB213435AB20A23FB181B7835
:1029F0009B005B125BB208210B405BB213435AB2DF
:102A00000A23FB181B789B001B125B005BB2102192
:102A10000B405BB213435AB20A23FB181B789B008E
:102A20001B12DB005BB220210B405BB213435AB296
:102A30000A23FB181B789B001B125B015BB2402131
:102A40000B405BB213435AB20A23FB181B789B005E
:102A50001B12DB015BB213435BB2DAB2FB681100FD
:102A60001800FFF7A7FD0A23FB181B78DB09DBB270
:102A70005AB20A23FB181B785B115BB202210B4090
:102A80005BB213435AB20A23FB181B78DB105BB20C
:102A900004210B405BB213435AB20A23FB181B7884
:102AA0005B105BB208210B405BB213435AB20A239E
:102AB000FB181B785B005BB210210B405BB2134329
:102AC0005AB20A23FB181B78DB005BB220210B40B3
:102AD0005BB213435AB20A23FB181B785B015BB24B
:102AE00040210B405BB213435AB20A23FB181B78F8
:102AF000DB015BB213435BB2DAB2FB681100180072
:102B0000FFF758FDFB681800FFF790FD36E17B6882
:102B10005A791923FB18D2001A707B689B79DB0065
:102B2000DAB21823FB1804321A70FB681800FFF79A
:102B30006DFDFB680F211800FFF728FD1923FB1816
:102B40001B78DB09DBB25AB21923FB181B785B1127
:102B50005BB202210B405BB213435AB21923FB183C
:102B60001B78DB105BB204210B405BB213435AB2FB
:102B70001923FB181B785B105BB208210B405BB27A
:102B800013435AB21923FB181B785B005BB2102168
:102B90000B405BB213435AB21923FB181B78DB00BE
:102BA0005BB220210B405BB213435AB21923FB18CE
:102BB0001B785B015BB240210B405BB213435AB2FE
:102BC0001923FB181B78DB015BB213435BB2DAB24B
:102BD000FB6811001800FFF7EDFC1823FB181B78A9
:102BE000DB09DBB25AB21823FB181B785B115BB20E
:102BF00002210B405BB213435AB21823FB181B7817
:102C0000DB105BB204210B405BB213435AB21823B2
:102C1000FB181B785B105BB208210B405BB21343BF
:102C20005AB21823FB181B785B005BB210210B40D3
:102C30005BB213435AB21823FB181B78DB005BB25C
:102C400020210B405BB213435AB21823FB181B78A8
:102C50005B015BB240210B405BB213435AB21823B5
:102C6000FB181B78DB015BB213435BB2DAB2FB6883
:102C700011001800FFF79EFCFB68E0211800FFF729
:102C800099FC7B681B68FB617B681B799AB21A23ED
:102C9000FB18D2001A8059E0CC8E0000C48E0000D0
:102CA000FB691B78DB09DBB25AB2FB691B785B114D
:102CB0005BB202210B405BB213435AB2FB691B7833
:102CC000DB105BB204210B405BB213435AB2FB69C9
:102CD0001B785B105BB208210B405BB213435AB206
:102CE000FB691B785B005BB210210B405BB21343A6
:102CF0005AB2FB691B78DB005BB220210B405BB250
:102D000013435AB2FB691B785B015BB240210B4055
:102D10005BB213435AB2FB691B78DB015BB213430E
:102D20005BB2DAB21723FB181A701723FA18FB6884
:102D300001211800FFF752FCFB690133FB611A23E4
:102D4000FB181A22BA181288013A1A801A23FB18A3
:102D50001B88002BA4D10A23FB181A780A23FB181E
:102D6000013A1A700A23FB181B78002B89D1FB68E3
:102D70001800FFF75BFC01E0002300E001231800CE
:102D8000BD4608B080BDC04690B585B000AFF860C4
:102D9000080011007B600B23FB18021C1A700A2329
:102DA000FB180A1C1A700B23FB181B78092B02D086
:102DB0000A2B07D011E0124AFB6811001800FFF738
:102DC000E9FC17E0FB681800FFF7F6FC0D4AFB680A
:102DD00011001800FFF73AFC0CE07C680A23FB188E
:102DE0001A780B23FB181978F8682300FFF7A8FD61
:102DF000030000E001231800BD4605B090BDC046A9
:102E0000448E00005C8E000090B583B000AF786007
:102E100008001100FB1C021C1A70BB1C0A1C1A7053
:102E20007B685C69BB1C1A78FB1C197878680023E6
:102E3000A047C046BD4603B090BD80B584B000AF8A
:102E4000F860080011007B600B23FB18021C1A704D
:102E50000A23FB180A1C1A7000231800BD4604B090
:102E600080BD000080B582B000AF78607B68002232
:102E70001A607B68104A9A607B680F4ADA607B6848
:102E80000D4A1A617B680C4A5A617B682322002133
:102E900099547B682622002199547B6800229A610C
:102EA0007B682422FF2199547B682822FF219954B2
:102EB000C046BD4602B080BD3B2E000080B584B048
:102EC00000AFF860B9607A603B60FB681800FFF7FC
:102ED000C9FFFB68BA689A60FB687A68DA60FB68C9
:102EE0003A681A61FB68BA695A61FB681800FFF713
:102EF000D3FCC046BD4604B080BD000080B582B0A2
:102F000000AF194B7B60194B3B607A683B689A4273
:102F10000CD007E03B681A1D3A607A68111D796091
:102F200012681A603A68124B9A42F3D3114B3B6015
:102F300004E03B681A1D3A6000221A603A680E4BA2
:102F40009A42F6D30D4B7B600D4B7A68FF218A4382
:102F50009A600C4A536880210B43536005F0CAF80D
:102F600004F0B6FDFEE7C04610920000000000200D
:102F70009000002090000020680900200000000060
:102F800000ED00E00040004180B500AFFEE780B5F5
:102F900082B000AF78600A00BB1C1A807B68BA1C44
:102FA00012885A80C046BD4602B080BD80B584B04C
:102FB00000AFF8607A600B23FB180A1C1A700B2311
:102FC000FB181B78FA68DB01D31808337A681A609B
:102FD000C046BD4604B080BD80B584B000AFF86087
:102FE0007A600B23FB180A1C1A700B23FB181B7842
:102FF000FA68DB01D31804337A681A60C046BD460C
:1030000004B080BD80B584B000AFF8607A600B2357
:10301000FB180A1C1A700B23FB181B78FA68DB01DB
:10302000D31818337A681A60C046BD4604B080BD14
:1030300080B584B000AFF8607A600B23FB180A1CDF
:103040001A700B23FB181B78FA68DB01D3181433B2
:103050007A681A60C046BD4604B080BD90B585B0A0
:1030600000AF78600C0010001900FB1C221C1A70C5
:10307000BB1C021C1A707B1C0A1C1A70FB1C1978E2
:10308000BB1C1A780F23FB1878683024C90141183B
:103090008A18121912781A700F23FB180F22BA1807
:1030A00012780F218A431A707B1C1B780F22134061
:1030B000D9B20F23FB180F22BA1812780A431A70DC
:1030C000FB1C1A78BB1C1B7879683020D2018A1847
:1030D000D3181B180F22BA1812781A70C046BD46B2
:1030E00005B090BD90B585B000AF78600C001000C1
:1030F0001900FB1C221C1A70BB1C021C1A707B1CC2
:103100000A1C1A70FB1C1978BB1C1A780F23FB18B9
:1031100078683024C90141188A18121912781A7077
:103120000F23FB180F22BA1812780F210A401A70C9
:103130007B1C1B781B01D9B20F23FB180F22BA1876
:1031400012780A431A70FB1C1A78BB1C1B7879682A
:103150003020D2018A18D3181B180F22BA181278FF
:103160001A70C046BD4605B090BD90B585B000AFA1
:1031700078600C0010001900FB1C221C1A70BB1C8C
:10318000021C1A707B1C0A1C1A70FB1C1978BB1CD1
:103190001A780F23FB1878684024C90141188A184F
:1031A000121912781A700F23FB180F22BA1812780E
:1031B00001218A431A707B1C19780F23FB180F22F8
:1031C000BA1812780A431A70FB1C1A78BB1C1B78B9
:1031D00079684020D2018A18D3181B180F22BA1818
:1031E00012781A70C046BD4605B090BDB0B582B029
:1031F00000AF786008001100FB1C021C1A70BB1C99
:103200000A1C1A70FB1C1A78BB1C1B78F91C087866
:10321000B91C09787C684025C0012018411849195B
:103220000978C9B204200143CCB279684020D201A8
:103230008A18D3181B18221C1A70C046BD4602B04B
:10324000B0BDB0B582B000AF786008001100FB1CC3
:10325000021C1A70BB1C0A1C1A70FB1C1A78BB1CBF
:103260001B78F91C0878B91C09787C684025C001D6
:103270002018411849190978C9B204208143CCB2F9
:1032800079684020D2018A18D3181B18221C1A70A2
:10329000C046BD4602B0B0BD80B584B000AFF86096
:1032A0007A600B23FB180A1C1A700B23FB181B787F
:1032B000FA68DB01D31828337A681A60C046BD4625
:1032C00004B080BD80B582B000AF39601100FB1D35
:1032D000021C1A70BB1D0A1C1A70BB1D1B78012B27
:1032E00023D0022B3FD0002B5DD13A68FB1D19780B
:1032F000C023DB051800FFF76FFE3B681B041B0CA7
:103300008022D2051A43FB1D1B782C481900FFF7B9
:10331000C3FF3B681B0CC02212061A43FB1D1B781F
:1033200026481900FFF7B8FF43E03A68FB1D1978FB
:10333000C023DB051800FFF74FFE3B681B041B0C86
:103340001F4A1A43FB1D1B781C481900FFF7A4FFF6
:103350003B681B0C1B4A1A43FB1D1B7817481900BE
:10336000FFF79AFF25E03A68FB1D1978C023DB05BB
:103370001800FFF71BFE3B681B041B0C8022D205C4
:103380001A43FB1D1B780D481900FFF785FF3B68AA
:103390001B0CC02212061A43FB1D1B78074819009C
:1033A000FFF77AFF05E0084B45221900002000F0E6
:1033B000D7FFC046BD4602B080BDC04600440041B4
:1033C00000000240000002C0DC8E000080B582B028
:1033D00000AF39601100FB1D021C1A70BB1D0A1CD6
:1033E0001A70BB1D1B78002B08D03A68FB1D19789A
:1033F000C023DB051800FFF705FE07E03A68FB1D58
:103400001978C023DB051800FFF712FEC046BD4641
:1034100002B080BD90B583B000AF04000800110079
:10342000FB1D221C1A70BB1D021C1A707B1D0A1C7E
:103430001A707B1D1B78012B0CD0022B29D0002B7E
:1034400046D1BB1D1A78FB1D1B7827481900FFF7D2
:10345000F8FE44E0BB1D1B7801229A40FB1D197841
:10346000C023DB051800FFF7B7FDBB1D1A78FB1D55
:103470001B781D481900FFF7B9FEBB1D1B78012200
:103480009A40FB1D1978C023DB051800FFF7BAFD31
:1034900025E0BB1D1B7801229A40FB1D1978C02333
:1034A000DB051800FFF798FDBB1D1A78FB1D1B7884
:1034B0000D481900FFF79AFEBB1D1B7801229A40A8
:1034C000FB1D1978C023DB051800FFF7B1FD06E0EE
:1034D000064B88221900002000F042FFC046C0467B
:1034E000BD4603B090BDC04600440041DC8E0000E4
:1034F00090B585B000AF786039607B685A090F23BA
:10350000FB181A707B68DAB20E23FB181F210A40E1
:103510001A703B6801330AD10E23FB181A780F2367
:10352000FB1819781B480023FFF71FFE2EE00E231F
:10353000FB181A780F23FB18197816480123FFF798
:1035400014FE0E23FB181B78012213400FD00E230C
:10355000FB181B785B08DAB23B68D8B20F23FB1864
:1035600019780C4C03002000FFF7BCFD0EE00E2381
:10357000FB181B785B08DAB23B68D8B20F23FB1844
:103580001978044C03002000FFF768FDC046BD46D3
:1035900005B090BD0044004180B582B000AF02008C
:1035A000FB1D1A70BB1D0A1C1A70FB1D1B785B09E2
:1035B000D8B2FB1D1B781F221340D9B2BB1D1B784C
:1035C0001A00FFF727FFC046BD4602B080BD80B598
:1035D00082B000AF786039603A687B6811001800EB
:1035E000FFF786FFC046BD4602B080BD80B582B001
:1035F00000AF0200FB1D1A70BB1D0A1C1A70FB1DD8
:103600001B785B09D8B2FB1D1B781F2213400122D7
:103610009A401100BB1D1B781A00FFF753FEC046ED
:10362000BD4602B080BD80B582B000AF0200FB1D78
:103630001A70BB1D0A1C1A70FB1D1B785B09D8B2DF
:10364000FB1D1B781F22134001229A401100BB1D55
:103650001B781A00FFF7BAFEC046BD4602B080BD17
:1036600080B500AF00F04AFFC046BD4680BD0000F7
:1036700080B582B000AF0200FB1D1A70BB1D0A1C92
:103680001A70FB1D1B789BB23F2213409AB2BB1DE0
:103690001B789BB21B0299B2F0231B010B409BB21B
:1036A00013439BB28022D20113439BB2044A1900F8
:1036B0001000FFF76CFCC046BD4602B080BDC0469E
:1036C000000C004080B582B000AF78607B68012BB1
:1036D00001D1002317E07B68022B01D1012312E006
:1036E0007B68032B01D102230DE07B68084A9342DB
:1036F00001D1032307E07B68064A934201D10423EA
:1037000001E00D235B421800BD4602B080BDC046FB
:10371000002000410040004180B582B000AF7860D9
:103720007A688223DB059A4201D1002313E07B688B
:103730000B4A934201D101230DE07B68094A934271
:1037400001D1022307E07B68074A934201D103239A
:1037500001E00D235B421800BD4602B080BDC046AB
:1037600000200041004000410044004180B584B089
:1037700000AF02003960FB1D1A703B689B0A3F22B4
:103780001340FB60FB1D1B78012B1ED002DC002BBD
:1037900005D044E0022B22D0032B36D03FE03B681B
:1037A0001800FFF78FFF031E40DB3B681800FFF790
:1037B00089FF0300FB60214B204A52690120F96810
:1037C000884001000A435A6130E01C4B1B4A926951
:1037D0000120F968884001000A439A6129E03B68AA
:1037E0001800FFF799FF031E22DB3B681800FFF764
:1037F00093FF0300FB60114B104AD2690120F96866
:10380000884001000A43DA6112E00C4B0B4A126A4D
:103810000120F968884001000A431A6209E0084B58
:103820008D221900002000F09BFD02E0C04600E060
:10383000C046C046BD4604B080BDC046000400403E
:10384000F88E000080B500AF00210320FFF710FFC5
:1038500001212120FFF7CAFE00212120FFF79CFE55
:1038600084239B0319002120FFF7B1FE01210A20C8
:10387000FFF7BCFE00210A20FFF78EFEA0231B03EA
:1038800019000A20FFF7A3FE00F0D8F8C046BD4695
:1038900080BD000080B500AF064B19001020FFF777
:1038A00096FE054B19001120FFF791FEC046BD465C
:1038B00080BDC046030010000300110080B500AFBA
:1038C000054B19000320FFF751FF00211020FFF7DF
:1038D000CFFEC046BD4680BD0014004280B500AF9B
:1038E000FFF7ECFF0549064B0022180000F056FCDC
:1038F000FFF7D0FFC046BD4680BDC0460014004261
:103900000008002080B500AF034B180000F06CF8F1
:10391000C046BD4680BDC04610E000E080B500AFA7
:10392000FFF79EFE00212020FFF77DFE02212020D0
:10393000FFF75CFE01235B4219002020FFF747FEE2
:1039400000212720FFF76FFE02212720FFF74EFE00
:1039500001235B4219002720FFF739FE00212820B0
:10396000FFF761FE02212820FFF740FE01235B42A2
:1039700019002820FFF72BFE01213F20FFF753FEFF
:1039800002213F20FFF732FE01235B4219003F2056
:10399000FFF71DFEFFF756FFFFF7A0FFFFF7B2FF8F
:1039A000C046BD4680BD80B584B000AF7860EFF3FF
:1039B0001083FB60FA687B681A6072B6BFF35F8F92
:1039C000C046BD4604B080BD80B584B000AF78600D
:1039D000BFF35F8F7B681B68FB60FB6883F3108815
:1039E000C046BD4604B080BD80B582B000AF7860EF
:1039F000054B7A681A60044B1B68180002F0FEFC45
:103A0000C046BD4602B080BDAC07002090B583B073
:103A100000AF0200BB1D1A80074B1C68BB1D1B8832
:103A2000180000F045FD03001900200002F0F2FC30
:103A3000C046BD4603B090BDAC07002080B582B043
:103A400000AFBB1D00221A8013E0BB1D1B880F4A6C
:103A5000DB00D3180433012252421A60BB1D1A88BE
:103A60000A4BD2000021D150BB1D1A88BB1D013268
:103A70001A80BB1D1B88022BE7D9054B180000F0EC
:103A800077FE03001800BD4602B080BDB0070020DD
:103A9000693C000080B586B000AF786039601723BC
:103AA000FB1800221A701623FB1800221A70152327
:103AB000FB1800221A701DE01723FB181B78694AB7
:103AC000DB00D31804331A687B689A420BD11723A2
:103AD000FB181A78634BD2003968D1501523FB18B4
:103AE00001221A700BE01723FB181A781723FB1812
:103AF00001321A701723FB181B78022BDCD93B68A4
:103B0000002B11D11523FB181B7801225340DBB287
:103B1000002B02D00D235B429FE07B680021180040
:103B200000F082FE030098E01523FB181B780122A9
:103B30005340DBB2002B00D17EE01723FB1800229C
:103B40001A7023E01723FB181A78464BD200D3587B
:103B5000002B14D11723FB181A78424BD200396876
:103B6000D1501723FB181B783E4ADB00D3180433CF
:103B70007A681A601523FB1801221A700BE01723CC
:103B8000FB181A781723FB1801321A701723FB1839
:103B90001B78022BD6D945E01723FB181B78314A36
:103BA000DB00D31804331A681623FB181B782D4941
:103BB000DB00CB1804331B689A422CD21623FB1867
:103BC0001B78284ADB00D31804331B68013322D04A
:103BD0001623FB181B780C22BA182249DB00CB18DD
:103BE00003CB03C21623FB181B781722BA181278CE
:103BF0001C48DB001B49D200C3188A1803CA03C340
:103C00001723FB181B78174ADB000C217918D318EF
:103C10000A0003CA03C31623FB181A781623FB18DD
:103C200001321A701623FB181B78022B04D81723B5
:103C3000FB181B78022BAFD91523FB181B78012228
:103C40005340DBB2002B02D00D235B4205E07B68C2
:103C50000121180000F0E8FD03001800BD4606B081
:103C600080BDC046B007002080B584B000AF78604A
:103C70000F23FB1800221A700E23FB1803221A7060
:103C800050E00E23FB181A780F23FB181B78D3186B
:103C90005A100D23FB181A700D23FB181B78022BEA
:103CA00049D80D23FB181B78264ADB00D3180433B0
:103CB0001A687B689A420FD10D23FB181A78214BA2
:103CC000D200D358002B38D00D23FB181A781D4B87
:103CD000D200D358984730E00D23FB181B78194ABF
:103CE000DB00D31804331A687B689A420DD20F2385
:103CF000FB180D22BA18127801321A700E23FB1825
:103D00000E22BA1812781A700CE00E23FB180D223E
:103D1000BA181278013A1A700F23FB180F22BA183A
:103D200012781A700E23FA180F23FB1812781B78DA
:103D30009A42A6D202E0C04600E0C046BD4604B0AA
:103D400080BDC046B007002080B58AB000AFF860E3
:103D5000B960BB1D1A80FB68143B7B627B6A9A8B3F
:103D60001423FB181A80BB1D1A881423FB185A60F1
:103D70001423FB180C4A5A801423FB18BA689A6063
:103D80007B6A1422BA181100180001F0B1FD03007B
:103D90003B623B6A002B01D03B6A01E0BB1D1B88E4
:103DA0001800BD460AB080BD0180FFFF80B58AB013
:103DB00000AFF860B960BB1D1A80FB68143B7B62E2
:103DC0007B6A9A8B1423FB181A80BB1D1A88142354
:103DD000FB185A601423FB180C4A5A801423FB1852
:103DE000BA689A607B6A1422BA181100180001F0B0
:103DF0007FFD03003B623B6A002B01D03B6A01E080
:103E0000BB1D1B881800BD460AB080BD0080FFFFA7
:103E100080B584B000AF786039607B685A1E9341EA
:103E2000DBB20E495E22180000F09AFA7B683A680D
:103E30001100180001F020FC0300FB60FB68002B60
:103E400001D0FB6806E07B68054A9A617B68054AF9
:103E50005A6100231800BD4604B080BD108F0000D9
:103E6000493D0000AD3D000080B582B000AF7860F4
:103E70007B68180001F082FC03001800BD4602B008
:103E800080BD80B584B000AFF8607A600A23FB186B
:103E90000A1C1A800A23FB181B889B059B0D1AB26B
:103EA0007B6819B28023DB000B401BB213431BB2AB
:103EB0009AB2FB689A83FB689B8B1800BD4604B0DE
:103EC00080BD80B582B000AF786039607B68143304
:103ED0001A003B681A6000231800BD4602B080BD7E
:103EE00080B584B000AFF860B960BB1D1A80FB6874
:103EF000002B04D0BB68002B01D0012300E000237D
:103F00001A1C01231340DBB208493422180000F0C8
:103F100027FAFB681B68BA1D1288B968F8689847C9
:103F200003001800BD4604B080BDC0462C8F0000C1
:103F300080B584B000AFF860B960BB1D1A80FB6823
:103F4000002B04D0BB68002B01D0012300E000232C
:103F50001A1C01231340DBB208493D22180000F06F
:103F6000FFF9FB685B68BA1D1288B968F868984762
:103F700003001800BD4604B080BDC0462C8F000071
:103F800080B584B000AF786039600023FB607B6847
:103F9000002B04D03B68002B01D0012300E000235C
:103FA0001A1C01231340DBB211494022180000F013
:103FB000D7F97B683A685A607B6804333A68110025
:103FC000180001F037FE0300FB60FB68002B01DAEC
:103FD000FB6809E07B68074A9A827B68064A1A6197
:103FE0007B68064ADA6000231800BD4604B080BD35
:103FF000408F00000080FFFF314000008D40000036
:1040000080B582B000AF78607B685A1E9341DBB206
:1040100006495722180000F0A3F97B680433180002
:1040200001F086FEC046BD4602B080BD408F000054
:1040300080B588B000AFF860B960BB1D1A80FB681E
:104040005A1E9341DBB210498722180000F088F90C
:10405000FB680C3BFB611023FB18BA685A60102305
:10406000FB1800221A60BB1D1A881023FB189A60E7
:104070001023FA18FB691100180000F035F803004E
:104080001800BD4608B080BD408F000080B588B0E4
:1040900000AFF860B960BB1D1A80FB685A1E9341DF
:1040A000DBB21049A322180000F05AF9FB680C3B60
:1040B000FB611023FB1800225A601023FB18BA681A
:1040C0001A60BB1D1A881023FB189A601023FA1877
:1040D000FB691100180000F007F803001800BD4646
:1040E00008B080BD408F000080B586B000AF78601A
:1040F00039607B68002B04D03B68002B01D0012382
:1041000000E000231A1C01231340DBB21049B32244
:10411000180000F025F93B681A680C23FB181A6098
:104120003B685A680C23FB185A603B689A680C235A
:10413000FB189A607B6804330C22BA18110018002F
:1041400001F0A2FE03001800BD4606B080BDC046C7
:10415000408F000080B582B000AF786039607B6826
:10416000002B04D03B68002B01D0012300E000238A
:104170001A1C01231340DBB20749BD22180000F0CE
:10418000EFF87B680C331A003B681A6000231800B4
:10419000BD4602B080BDC046408F000080B586B0ED
:1041A00000AFF860B9607A60FB68002B04D0BB6890
:1041B000002B01D0012300E000231A1C012313402F
:1041C000DBB20F493422180000F0CAF8FB6808334C
:1041D000BA681100180001F005F803007B617B69E3
:1041E000002B01D07B6906E0FB68064A5A60FB6839
:1041F000054A1A6000231800BD4606B080BDC046BF
:104200005C8F0000D14200000D42000080B586B0F6
:1042100000AFF860B960BB1D1A8000237B61FB68AA
:104220003B61FB68002B08D0BB68002B05D0BB1D91
:104230001B88002B01D0012300E000231A1C01235E
:104240001340DBB22149F122180000F089F8C04682
:104250003B690833180001F004F803001A00012339
:104260005340DBB2002BF3D13B6908331800BA6826
:104270007B69D3181B78190000F0D0FFC0463B695A
:104280000833180000F0EDFF03001A00012353402B
:10429000DBB2002BF3D17B6901337B61BB1D1B8833
:1042A0007A699A42E0D3C0463B690833180000F0AF
:1042B000E6FF03001A0001235340DBB2002BF3D1C9
:1042C0007B691800BD4606B080BDC0465C8F00000B
:1042D00090B587B000AFF860B960BB1D1A800023AD
:1042E0007B61FB683B61FB68002B08D0BB68002B3F
:1042F00005D0BB1D1B88002B01D0012300E000234B
:104300001A1C01231340D8B286235A00134B1900FC
:1043100000F026F8C0463B690833180000F0BDFFE6
:1043200003001A0001235340DBB2002BF3D1BA681B
:104330007B69D4183B690833180000F083FF030041
:1043400023707B6901337B61BB1D1B887A699A42AC
:10435000E0D37B691800BD4607B090BD5C8F0000BC
:1043600080B584B000AFB9607A600F23FB18021CDF
:104370001A700F23FB181B7801225340DBB2002B6D
:1043800000D000BEC046BD4604B080BD80B584B03C
:1043900000AF78600A4B1B68002B02D1084B094A1A
:1043A0001A60074B1B68FB60054B1A687B68D218C4
:1043B000034B1A60FB681800BD4604B080BDC046C0
:1043C000C80700206829002090B583B000AF39608D
:1043D0001100BB1D021C1A807B1D0A1C1A707B1D5C
:1043E0001B78043B042B4CD89A002E4BD3181B6827
:1043F0009F46BB1D1C883B682B49180003F0E0FD5D
:10440000030063436422534347E0BB1D1C883B68A1
:104410002649180003F0D4FD030063431A0013007B
:104420009B009B185B0038E0BB1D1C883A68FA2390
:104430009900100003F0C4FD030063432DE0BB1D91
:104440001C883B686421180003F0BAFD0300634335
:10445000013B0A21180003F0B3FD030001331CE007
:10446000BB1D1C883B680A21180003F0A9FD03004E
:104470006343013B6421180003F0A2FD03000133F4
:104480000BE0BB1D1B883A6853435A1EFA23990060
:10449000100003F095FD030001331800BD4603B082
:1044A00090BDC046788F0000A08601001027000054
:1044B00080B582B000AF0200BB1D1A800549BB1D4C
:1044C0001B8808221800FFF77FFF03001800BD4675
:1044D00002B080BD006CDC0280B582B000AF7860B5
:1044E00039607B685A683B685B001E210B401A43A9
:1044F0007B685A60C046BD4602B080BD80B500AF43
:10450000094B03211800FFF7E7FF00F06DFB01F0F6
:104510007BFE082000F0DAFA01F0E8FEF72000F058
:10452000D5FAC046BD4680BD0040004180B582B08E
:1045300000AF0200FB1D1A70FB1D1B787F2B09D8F2
:10454000064BFA1D127811001F220A4001219140EA
:104550000A001A60C046BD4602B080BD00E100E01E
:1045600080B582B000AF0200FB1D1A70FB1D1B78E6
:104570007F2B0ED80949FB1D1B781A001F231340FF
:1045800001229A40130080228B50BFF34F8FBFF35C
:104590006F8FC046BD4602B080BDC04600E100E05E
:1045A00080B582B000AF0200FB1D1A70FB1D1B78A6
:1045B0007F2B0AD80749FB1D1B781A001F231340C5
:1045C00001229A40C0235B00CA50C046BD4602B0DB
:1045D00080BDC04600E100E080B582B000AF7860E9
:1045E000C0467B685B781B06DB0FDBB2002BF8D183
:1045F000C046BD4602B080BD80B582B000AF7860D5
:104600007B681B691800BD4602B080BD80B582B0D2
:1046100000AF786039607B683A681A61C046BD4671
:1046200002B080BD80B582B000AF786039607B6831
:104630003A68DA60C046BD4602B080BD80B582B03F
:1046400000AF78607B68DB681800BD4602B080BDB3
:1046500080B582B000AF786039607B683A689A6054
:10466000C046BD4602B080BD80B582B000AF786064
:104670007B681B78DBB202221343DAB27B681A70C4
:104680007B681800FFF7A8FFC046BD4602B080BD9A
:1046900080B584B000AF78600A00FB1C1A707B689C
:1046A0001800FFF799FF0F23FB187A6812781A7029
:1046B0000F23FB180F22BA18F91C127809780A4048
:1046C0001A700F23FB181B781800BD4604B080BD7C
:1046D00080B582B000AF78600A00FB1C1A707B685E
:1046E000FA1C12781A707B681800FFF775FFC04635
:1046F000BD4602B080BD80B582B000AF78600A00D0
:10470000FB1C1A707B68FA1C12789A70C046BD4672
:1047100002B080BD80B582B000AF786039607B6840
:104720003A685A60C046BD4602B080BD80B582B0CE
:1047300000AF786039607B683A685A61C046BD4610
:1047400002B080BD80B584B000AFF8607A600B2302
:10475000FB180A1C1A700B23FB181A78FB68063228
:1047600092007968D150C046BD4604B080BD0000BB
:1047700080B582B000AF7860284B1800FFF72CFF9F
:10478000264B02211800FFF783FF031E08D0234B9E
:1047900000211800FFF79CFF204B1800FFF71CFFBB
:1047A0001E4B01211800FFF793FF1C4B1800FFF769
:1047B00013FF1A4B00211800FFF79DFF8023DB0039
:1047C000164A19001000FFF7A5FF8023DB01134AEA
:1047D00019001000FFF7AAFF104B902200211800CB
:1047E000FFF7B0FF0E4A0D4B01211800FFF7AAFF9B
:1047F0000A4B1800FFF738FF0420FFF7B1FE042032
:10480000FFF7CEFE0420FFF791FE064B7A681A6090
:1048100000231800BD4602B080BDC046001800400D
:1048200000020001CC07002080B584B000AF7860A2
:104830000A00FB1C1A700F23FB18FF221A700E23AC
:10484000FB1800221A701BE00E23FB181B78284A65
:10485000DB00D31804331A687B689A4209D10E230F
:10486000FB1819780F23FB18214AC9008A5C1A70BB
:104870000BE00E23FB181A780E23FB1801321A7076
:104880000E23FB181B78022BDED90F23FB181B7895
:10489000FF2B02D10D235B4226E0FB1C1B78002B73
:1048A0000BD00F23FB181B7801229A401300114AEA
:1048B00019001000FFF7B6FE15E00F23FB181B7858
:1048C00001229A4013000B4A19001000FFF7C0FEA6
:1048D0000F23FB181B7801229A401300054A190088
:1048E0001000FFF793FE00231800BD4604B080BD02
:1048F0008C8F00000018004090B585B000AF594B78
:104900001800FFF779FE0400564B1800FFF796FEDB
:10491000030023403B6001235B42BB603B68514A7C
:1049200019001000FFF772FE4F4B1B685A1E93418F
:10493000DBB24E49D2221800FFF712FD8AE03B6835
:10494000180003F0C9FB0300DBB2013BDAB20F230E
:10495000FB181A7066E0FB1D00221A70BB1D0322B3
:104960001A703BE0BB1D1A78FB1D1B78D3185A1038
:104970007B1D1A707B1D1A783D4BD200D35C1A0048
:104980000F23FB181B785BB29A4208D17B1D1B7862
:10499000374ADB00D31804331B68BB6024E07B1D5F
:1049A0001A78334BD200D35C1A000F23FB181B7804
:1049B0005BB29A4209DAFB1D7A1D127801321A7035
:1049C000BB1DBA1D12781A7008E0BB1D7A1D127843
:1049D000013A1A70FB1DFA1D12781A70BA1DFB1DE0
:1049E00012781B789A42BDD2BB68013304D01E4BAB
:1049F0001B68BA68100098470F23FB181B785BB23E
:104A000001229A401300DB433A6813403B603B6845
:104A1000180003F061FB0300DBB2013BDAB20F23A5
:104A2000FB181A700F23FB181B785BB2013392D16D
:104A30000C4B1800FFF7E0FD04000A4B1800FFF7CD
:104A4000FDFD030023403B603B68064A190010004F
:104A5000FFF7DCFD3B68002B00D070E7C046BD4689
:104A600005B090BD00180040CC070020A48F0000C6
:104A70008C8F000080B582B000AF7860C0467B6844
:104A80005B781B06DB0FDBB2002BF8D1C046BD46BE
:104A900002B080BD80B582B000AF786039607B68BD
:104AA0003A685A607B681800FFF7E4FFC046BD46CD
:104AB00002B080BD80B582B000AF786039607B689D
:104AC0003A689A60C046BD4602B080BD80B582B0EB
:104AD00000AF78607B68012213400CD080235B001C
:104AE0000F4A19001000FFF7E5FF0E4A0C4B1100AA
:104AF0001800FFF7CFFF7B68082213400BD00A4A4B
:104B0000074B11001800FFF7D5FF084A044B1100AE
:104B10001800FFF7BFFFC046BD4602B080BDC046CB
:104B2000000C004000070100030400000304010022
:104B300080B582B000AF78600A00FB1C1A707B68F9
:104B40001B7ADAB2FB1C1B7807210B40DBB2134344
:104B5000DAB27B681A72C046BD4602B080BD80B52D
:104B600082B000AF78600A00FB1C1A707B685B7A29
:104B7000DAB2FB1C1B7807210B40DBB21343DAB21D
:104B80007B685A72C046BD4602B080BD80B582B017
:104B900000AF78600A00FB1C1A707B689B7ADAB25F
:104BA000FB1C1B7807210B40DBB21343DAB27B6896
:104BB0009A72C046BD4602B080BD80B582B000AFDB
:104BC00078600A00FB1C1A707B68DB7ADAB2FB1C87
:104BD0001B7807210B40DBB21343DAB27B68DA7231
:104BE000C046BD4602B080BD80B500AF0B4B002172
:104BF0001800FFF79DFF094B00211800FFF7AFFFDA
:104C0000064B00211800FFF7C1FF044B00211800DC
:104C1000FFF7D3FFC046BD4680BDC046000400403C
:104C200080B582B000AF7860C0467B681B8A1B04E9
:104C3000DB0FDBB2002BF8D1C046BD4602B080BD11
:104C400080B582B000AF7860C0467B681B8A1B04C9
:104C5000DB0FDBB2002BF8D1C046BD4602B080BDF1
:104C600080B582B000AF78607B681B8A1B04DB0FC5
:104C7000DBB25A1E9341DBB21800BD4602B080BDC4
:104C800080B582B000AF7860C0467B681B8A1B0489
:104C9000DB0FDBB2002BF8D1C046BD4602B080BDB1
:104CA00080B582B000AF78607B6801229A73C046FD
:104CB000BD4602B080BD80B582B000AF78607B6831
:104CC00002229A73C046BD4602B080BD80B582B054
:104CD00000AF78607B689B7BDBB21800BD4602B0FA
:104CE00080BD80B584B000AF78600A00FB1C1A70EC
:104CF0000F23FB187A68927B1A700F23FB180F2280
:104D0000BA18F91C127809780A401A700F23FB1898
:104D10001B781800BD4604B080BD80B582B000AFDE
:104D200078607B689B7BDBB21800BD4602B080BD1B
:104D300080B582B000AF78600A00FB1C1A707B68F7
:104D4000FA1C12789A73C046BD4602B080BD80B589
:104D500082B000AF78607B689B7BDBB21A000123D6
:104D600013405A1E9341DBB21800BD4602B080BD0D
:104D700080B582B000AF78607B689B7BDBB25B085C
:104D8000012213405A1E9341DBB21800BD4602B007
:104D900080BD80B582B000AF78607B689B7BDBB262
:104DA0009B08012213405A1E9341DBB21800BD46F6
:104DB00002B080BD80B582B000AF78607B681B68B0
:104DC00002221A437B681A607B681800FFF728FFED
:104DD000C046BD4602B080BD80B584B000AF7860EB
:104DE00039607B681800FFF71BFF7B681B68FB605E
:104DF000FB683A681340FB60FB681800BD4604B0CE
:104E000080BD80B582B000AF786039607B683A6859
:104E10001A607B681800FFF703FFC046BD4602B06A
:104E200080BD80B582B000AF78607B681B680222CD
:104E30001A437B681A607B681800FFF701FFC046C1
:104E4000BD4602B080BD80B584B000AF78607B689D
:104E50001800FFF7F5FE7B681B68FB60FB685B08CA
:104E600001221340FB60FB685A1E9341DBB218001D
:104E7000BD4604B080BD80B584B000AF78603960B5
:104E80007B681800FFF7DCFE7B681B68FB60FB6833
:104E90003A681340FB60FB681800BD4604B080BD53
:104EA00080B582B000AF786039607B683A681A607C
:104EB0007B681800FFF7C4FEC046BD4602B080BD47
:104EC00080B584B000AF786039607B681800FFF768
:104ED000D7FE7B681B68FB60FB683A681340FB6089
:104EE000FB681800BD4604B080BD80B582B000AF3D
:104EF000786039607B683A681A607B681800FFF751
:104F0000BFFEC046BD4602B080BD80B582B000AFD6
:104F100078607B685B68802252001A437B685A6025
:104F20007B681800FFF77CFEC046BD4602B080BD1E
:104F300080B582B000AF78607B685B68054A1A4034
:104F40007B685A607B681800FFF76AFEC046BD4662
:104F500002B080BDFFFEFFFF80B582B000AF786079
:104F60007B685B688022D2021A437B685A607B6848
:104F70001800FFF755FEC046BD4602B080BD0000D8
:104F800080B582B000AF78607B685B68054A1A40E4
:104F90007B685A607B681800FFF742FEC046BD463A
:104FA00002B080BDFFFFFBFF80B582B000AF78602C
:104FB00039607B685A683B681904C0239B020B4028
:104FC0001A437B685A607B681800FFF729FEC046C9
:104FD000BD4602B080BD80B582B000AF7860396058
:104FE0007B683A685A607B681800FFF719FEC04674
:104FF000BD4602B080BD80B582B000AF7860396038
:105000007B683A685A60C046BD4602B080BD80B534
:1050100082B000AF786039607B683A685A607B681C
:105020001800FFF72DFEC046BD4602B080BD80B51A
:1050300082B000AF78600A00FB1C1A707B68FA1C13
:1050400012781A72C046BD4602B080BD80B582B0EB
:1050500000AF78600A00FB1C1A707B68FA1C12789B
:105060001A72C046BD4602B080BD80B582B000AFA6
:1050700078600A00BB1C1A807B68BA1C12885A81AF
:10508000C046BD4602B080BD80B582B000AF78603A
:105090000A00FB1C1A707B68FA1C12789A72C046D0
:1050A000BD4602B080BD80B582B000AF78600A0016
:1050B000BB1C1A807B68BA1C12885A81C046BD4648
:1050C00002B080BD80B582B000AF78600A00FB1CE2
:1050D0001A707B68FA1C12781A757B681800FFF743
:1050E0009FFDC046BD4602B080BD80B582B000AF16
:1050F000786039607B683A685A61C046BD4602B044
:1051000080BD80B582B000AF78600A00FB1C1A70C9
:105110007B68FA1C12781A76C046BD4602B080BD84
:1051200080B582B000AF78607B681B7EDBB2180070
:10513000BD4602B080BD80B582B000AF78600A0085
:10514000BB1C1A807B68BA1C12881A83C046BD46F5
:1051500002B080BD80B582B000AF78607B681B8BE9
:105160009BB21800BD4602B080BD80B582B000AFD2
:1051700078600A00BB1C1A807B68BA1C12881A83EC
:10518000C046BD4602B080BD80B582B000AF786039
:105190007B681B8B9BB21800BD4602B080BD80B5FA
:1051A00082B000AF78607B681800FFF739FD7B683C
:1051B0001B8A9BB21B099BB2032213409BB21800AF
:1051C000BD4602B080BD80B582B000AF78607B681C
:1051D0001800FFF725FD7B681B8A9BB21800BD46AF
:1051E00002B080BD80B582B000AF786039607B6866
:1051F0005A1E9341DBB20849A1221800FFF7B0F80C
:105200007B683A681A603B68180000F0A3F8030056
:105210001800BD4602B080BDBC8F000080B582B0D2
:1052200000AF78600A00FB1C1A707B681A68FB1CD0
:105230001B789BB219001000FFF797FFC046BD46D0
:1052400002B080BD80B582B000AF78607B681B681B
:105250001800FFF799FF0300DBB21800BD4602B04B
:1052600080BD80B582B000AF78607B681B68180095
:10527000FFF76DFD03001800BD4602B080BD80B58C
:1052800082B000AF78607B681B681800FFF770FD84
:1052900003001800BD4602B080BD80B582B000AFEB
:1052A00078607B681B681800FFF773FD0300180027
:1052B000BD4602B080BD000080B582B000AF78600E
:1052C0007B68044A944663449B0ADBB21800BD46DF
:1052D00002B080BD00F8FFBD90B585B000AF78602A
:1052E0000E23FC187B681800FFF7E6FF030023700D
:1052F0000F23FB1800221A7015E00F23FB181A78F1
:10530000114B1201D35C0E22BA1812789A4203D1C3
:105310000F23FB181B7812E00F23FB181A780F23BA
:10532000FB1801321A700F23FB181B78002BE4D0F6
:10533000064A074B19000020FFF712F80023180057
:10534000BD4605B090BDC046000000202A02000006
:10535000BC8F000090B585B000AF78600F23FC18BB
:105360007B681800FFF7B8FF030023707B68180004
:10537000FFF786FC7B6802211800FFF7A1FD031EE2
:1053800008D07B6800211800FFF7AFFD7B6818008C
:10539000FFF776FC7B6801211800FFF7A6FD7B680C
:1053A0001800FFF76DFC0F23FB181B781A4A1B012E
:1053B000D31804331A687B6811001800FFF795FDB5
:1053C0000F23FB181B78144A1B01D31808331A68E3
:1053D0007B6811001800FFF71AFE0F23FB181B78DB
:1053E0000D4A1B01D3180C331A887B681100180072
:1053F000FFF759FE0F23FB181B78074A1B01D31830
:105400000E331A787B6811001800FFF71FFE002387
:105410001800BD4605B090BD0000002090B585B0D5
:1054200000AF78600E23FC187B681800FFF744FF7C
:10543000030023700F23FB1800221A7018E00F23BB
:10544000FB181A78124913005B009B18DB005B5CA9
:105450000E22BA1812789A4203D10F23FB181B7838
:1054600012E00F23FB181A780F23FB1801321A7071
:105470000F23FB181B78002BE1D0064A064B1900BE
:105480000020FEF76DFF00231800BD4605B090BD5B
:105490001000002066030000BC8F000080B582B0C1
:1054A00000AF78607B6803211800FFF77DFDC046E0
:1054B000BD4602B080BD000090B587B000AFF86077
:1054C000B9607A601623FC18FB681800FFF77BFEB2
:1054D00003002380BB680122134000D179E016232A
:1054E000FB181B880222134020D0FB681800FFF72E
:1054F000D7FB7B685B889BB28022520113439AB230
:105500007B685A807B685B889BB25A4A13409AB288
:105510007B685A801623FB181B880122134002D097
:1055200005235B42A2E004235B429FE01623FB18A5
:105530001B880422134021D07B685B68002B08DDA8
:105540007B685B889BB28022520113439AB27B68CE
:105550005A807B685B889BB21BB2002B03DAFB6826
:105560001800FFF79BFF7B685B889BB2414A1340A2
:105570009AB27B685A8002235B4277E07B685B6863
:10558000002B12D17B685B889BB21BB2002B03DA25
:10559000FB681800FFF782FF7B685B889BB2354A87
:1055A00013409AB27B685A8011E07B689B681A7836
:1055B000FB6811001800FFF7A4FD7B689B685A1C6C
:1055C0007B689A607B685B685A1E7B685A60002320
:1055D0004CE0BB680222134047D07B685B68002B1D
:1055E0003CD01623FB181B880422134036D17B685D
:1055F0005B685A1E7B685A607B685B68002B03D12E
:10560000FB681800FFF7A8FC7B685B68002B15D1CE
:105610007B685B889BB21BB2002B07DAFB68180023
:10562000FFF786FCFB681800FFF738FF7B685B8894
:105630009BB2104A13409AB27B685A807B689C6880
:10564000621C7B689A60FB681800FFF769FD030025
:105650002370FB681800FFF72EFB06E0FB681800BC
:10566000FFF729FB02235B4200E000231800BD4640
:1056700007B090BDFFFEFFFF90B585B000AF78602A
:1056800039600F23FC183B681800FFF7C7FE0300C2
:1056900023707B685A1E9341DBB2354A35491800A6
:1056A000FEF75EFE7B683A681A613B681800FFF7F8
:1056B000B7FA3B6802211800FFF78EFB031E08D0E3
:1056C0003B6800211800FFF79CFB3B681800FFF7C0
:1056D000A7FA3B6801211800FFF793FB3B6818000D
:1056E000FFF79EFA0F23FB181A78234913005B007B
:1056F0009B18DB00CB1804331B68022293431A006B
:105700003B6811001800FFF77CFB0F23FB181A7889
:10571000194913005B009B18DB00CB1808331A688B
:105720003B6811001800FFF756FC0F23FB181A788E
:10573000114913005B009B18DB00CB180C331A884F
:105740003B6811001800FFF790FC0F23FB181A7834
:10575000094913005B009B18DB00CB1810331A8833
:105760007B68DA8100231800BD4605B090BDC046B5
:10577000D7040000BC8F00001000002080B586B068
:1057800000AF7860204B7B6104233B617B681B6921
:10579000FB607B685A1E9341D8B2A123DA001B4BF1
:1057A0001900FEF7DDFD7B681B695A1E9341DBB2D1
:1057B000174A16491800FEF7D3FDFB681800FFF7DB
:1057C000F9FA14E07B69013B7B617B69002B0EDCFD
:1057D0003B69013B3B613B69002B05D00A4B7B6178
:1057E000FB6810221A8202E006235B4207E0FB6896
:1057F0001800FFF7D4FC0300012BE3D100231800AD
:10580000BD4606B080BDC046FFFF0000BC8F000053
:105810000905000080B584B000AF78603960124B94
:10582000FB607B681B69BB60BB681800FFF74EFA22
:1058300003001A003B681A60FB685A1EFA60002BCE
:1058400002D105235B420AE03B681B68012213403A
:1058500004D13B681B6802221340E5D000231800E6
:10586000BD4604B080BDC046FFFF000080B586B0D5
:1058700000AF78607B681B697B617B683B617B68FC
:105880005A1E9341DBB2184A18491800FEF768FD0A
:105890007B691800FFF774FB3B691B885B005AB2F9
:1058A0003B695B889BB2190001230B40591E8B4159
:1058B000DBB25BB213435BB2DAB27B691100180052
:1058C000FFF700FC0C23FA187B6811001800FFF7A3
:1058D000A1FFF9683A697B691800FFF7EDFD030045
:1058E0001800BD4606B080BD81050000BC8F0000D9
:1058F00090B587B000AF786039607B681B693B6109
:105900007B685A1E9341DBB23D4A3E491800FEF7C0
:1059100027FD7B681B695A1E9341DBB23A4A39491D
:105920001800FEF71DFD3B685A1E9341DBB2374A53
:1059300034491800FEF714FD7B685B889BB21A009F
:1059400080235B00134002D006235B4254E03B6897
:105950005B889BB28022520013439AB23B685A8004
:105960007B683A6813CA13C33B691800FFF7CDFA86
:105970007B681800FFF77AFF03007B617B69002BCF
:1059800031D07B685B889BB2214A13409AB27B6816
:105990005A807B6930E00C23FA187B6811001800EC
:1059A000FFF738FF03007B617B69002B13D03B6856
:1059B0005B889BB21BB2002B03DA3B691800FFF730
:1059C0006DFD7B685B889BB2114A13409AB27B687D
:1059D0005A807B6910E0F9687A683B691800FFF724
:1059E0006BFD03007B617B685B889BB21A008023A0
:1059F0005B001340CFD17B691800BD4607B090BD56
:105A00009B050000BC8F00009C0500009D05000068
:105A1000FFFEFFFF80B582B000AF78607B681800A2
:105A2000FFF71EF9031E02D004235B4204E07B68EB
:105A30001800FFF7F6F900231800BD4602B080BD3C
:105A400080B582B000AF786039607B68002B04D0ED
:105A50003B68002B01D0012300E000231A1C012326
:105A60001340DBB21F4A20491800FEF779FC3B685F
:105A70001A78597809020A43997809040A43DB78AD
:105A80001B0613431A00194B1A407B6811001800BB
:105A9000FFF706FA3B681A79597909020A4399799E
:105AA00009040A43DB791B0613431A00104B134009
:105AB000802292021A437B6811001800FFF79BFABC
:105AC0003B681A7B7B6811001800FFF7DDFA3B6822
:105AD0005A7B7B6811001800FFF7A9FAC046BD4643
